{
  "contractName": "UnwindFactory",
  "abi": [
    {
      "inputs": [],
      "stateMutability": "nonpayable",
      "type": "constructor"
    },
    {
      "anonymous": false,
      "inputs": [
        {
          "indexed": false,
          "internalType": "address",
          "name": "unwind",
          "type": "address"
        },
        {
          "indexed": false,
          "internalType": "address",
          "name": "beneficiary",
          "type": "address"
        },
        {
          "indexed": false,
          "internalType": "uint256",
          "name": "period",
          "type": "uint256"
        },
        {
          "indexed": false,
          "internalType": "uint256",
          "name": "fee",
          "type": "uint256"
        },
        {
          "indexed": false,
          "internalType": "bool",
          "name": "flat",
          "type": "bool"
        }
      ],
      "name": "LogNewDistributor",
      "type": "event"
    },
    {
      "anonymous": false,
      "inputs": [
        {
          "indexed": false,
          "internalType": "address",
          "name": "operator",
          "type": "address"
        }
      ],
      "name": "LogNewOperator",
      "type": "event"
    },
    {
      "anonymous": false,
      "inputs": [
        {
          "indexed": false,
          "internalType": "bytes32",
          "name": "name",
          "type": "bytes32"
        },
        {
          "indexed": false,
          "internalType": "address",
          "name": "addr",
          "type": "address"
        }
      ],
      "name": "LogNewService",
      "type": "event"
    },
    {
      "anonymous": false,
      "inputs": [
        {
          "indexed": false,
          "internalType": "bytes32",
          "name": "ilk",
          "type": "bytes32"
        },
        {
          "indexed": false,
          "internalType": "address",
          "name": "addr",
          "type": "address"
        }
      ],
      "name": "LogNewToken",
      "type": "event"
    },
    {
      "inputs": [
        {
          "internalType": "address",
          "name": "_newOperator",
          "type": "address"
        }
      ],
      "name": "changeOperator",
      "outputs": [],
      "stateMutability": "nonpayable",
      "type": "function"
    },
    {
      "inputs": [],
      "name": "operator",
      "outputs": [
        {
          "internalType": "address",
          "name": "",
          "type": "address"
        }
      ],
      "stateMutability": "view",
      "type": "function",
      "constant": true
    },
    {
      "inputs": [
        {
          "internalType": "bytes32",
          "name": "",
          "type": "bytes32"
        }
      ],
      "name": "services",
      "outputs": [
        {
          "internalType": "address",
          "name": "",
          "type": "address"
        }
      ],
      "stateMutability": "view",
      "type": "function",
      "constant": true
    },
    {
      "inputs": [
        {
          "internalType": "bytes32",
          "name": "",
          "type": "bytes32"
        }
      ],
      "name": "tokens",
      "outputs": [
        {
          "internalType": "address",
          "name": "",
          "type": "address"
        }
      ],
      "stateMutability": "view",
      "type": "function",
      "constant": true
    },
    {
      "inputs": [
        {
          "internalType": "bytes32",
          "name": "name",
          "type": "bytes32"
        },
        {
          "internalType": "address",
          "name": "addr",
          "type": "address"
        }
      ],
      "name": "register",
      "outputs": [],
      "stateMutability": "nonpayable",
      "type": "function"
    },
    {
      "inputs": [
        {
          "internalType": "bytes32",
          "name": "ilk",
          "type": "bytes32"
        },
        {
          "internalType": "address",
          "name": "addr",
          "type": "address"
        }
      ],
      "name": "registerToken",
      "outputs": [],
      "stateMutability": "nonpayable",
      "type": "function"
    },
    {
      "inputs": [
        {
          "internalType": "bytes32",
          "name": "name",
          "type": "bytes32"
        }
      ],
      "name": "lookup",
      "outputs": [
        {
          "internalType": "address",
          "name": "addr",
          "type": "address"
        }
      ],
      "stateMutability": "view",
      "type": "function",
      "constant": true
    },
    {
      "inputs": [
        {
          "internalType": "bytes32",
          "name": "ilk",
          "type": "bytes32"
        }
      ],
      "name": "lookupToken",
      "outputs": [
        {
          "internalType": "address",
          "name": "addr",
          "type": "address"
        }
      ],
      "stateMutability": "view",
      "type": "function",
      "constant": true
    },
    {
      "inputs": [
        {
          "internalType": "uint256",
          "name": "period",
          "type": "uint256"
        },
        {
          "internalType": "uint256",
          "name": "fee",
          "type": "uint256"
        },
        {
          "internalType": "bool",
          "name": "flat",
          "type": "bool"
        }
      ],
      "name": "join",
      "outputs": [],
      "stateMutability": "nonpayable",
      "type": "function"
    }
  ],
  "bytecode": "0x608060405234801561001057600080fd5b506100203361002560201b60201c565b6100ec565b806000806101000a81548173ffffffffffffffffffffffffffffffffffffffff021916908373ffffffffffffffffffffffffffffffffffffffff1602179055507f440b0aee43e555e5bba5755e53862ffbc889c8ac177294486725dbe0847c5f756000809054906101000a900473ffffffffffffffffffffffffffffffffffffffff16604051808273ffffffffffffffffffffffffffffffffffffffff1673ffffffffffffffffffffffffffffffffffffffff16815260200191505060405180910390a150565b61386d806100fb6000396000f3fe608060405234801561001057600080fd5b50600436106100935760003560e01c8063570ca73511610066578063570ca73514610206578063904194a314610250578063d22057a9146102be578063e71ba1e61461030c578063f39ec1f71461035057610093565b806306394c9b146100985780630a790eb7146100dc5780630c43feb31461014a5780632ded0fb5146101b8575b600080fd5b6100da600480360360208110156100ae57600080fd5b81019080803573ffffffffffffffffffffffffffffffffffffffff1690602001909291905050506103be565b005b610108600480360360208110156100f257600080fd5b810190808035906020019092919050505061048c565b604051808273ffffffffffffffffffffffffffffffffffffffff1673ffffffffffffffffffffffffffffffffffffffff16815260200191505060405180910390f35b6101766004803603602081101561016057600080fd5b81019080803590602001909291905050506104bf565b604051808273ffffffffffffffffffffffffffffffffffffffff1673ffffffffffffffffffffffffffffffffffffffff16815260200191505060405180910390f35b610204600480360360408110156101ce57600080fd5b8101908080359060200190929190803573ffffffffffffffffffffffffffffffffffffffff1690602001909291905050506104fc565b005b61020e61067f565b604051808273ffffffffffffffffffffffffffffffffffffffff1673ffffffffffffffffffffffffffffffffffffffff16815260200191505060405180910390f35b61027c6004803603602081101561026657600080fd5b81019080803590602001909291905050506106a4565b604051808273ffffffffffffffffffffffffffffffffffffffff1673ffffffffffffffffffffffffffffffffffffffff16815260200191505060405180910390f35b61030a600480360360408110156102d457600080fd5b8101908080359060200190929190803573ffffffffffffffffffffffffffffffffffffffff1690602001909291905050506106d7565b005b61034e6004803603606081101561032257600080fd5b81019080803590602001909291908035906020019092919080351515906020019092919050505061085a565b005b61037c6004803603602081101561036657600080fd5b81019080803590602001909291905050506109c7565b604051808273ffffffffffffffffffffffffffffffffffffffff1673ffffffffffffffffffffffffffffffffffffffff16815260200191505060405180910390f35b6000809054906101000a900473ffffffffffffffffffffffffffffffffffffffff1673ffffffffffffffffffffffffffffffffffffffff163373ffffffffffffffffffffffffffffffffffffffff1614610480576040517f08c379a00000000000000000000000000000000000000000000000000000000081526004018080602001828103825260148152602001807f4552524f523a3a4143434553535f44454e49454400000000000000000000000081525060200191505060405180910390fd5b61048981610a04565b50565b60016020528060005260406000206000915054906101000a900473ffffffffffffffffffffffffffffffffffffffff1681565b60006002600083815260200190815260200160002060009054906101000a900473ffffffffffffffffffffffffffffffffffffffff169050919050565b6000809054906101000a900473ffffffffffffffffffffffffffffffffffffffff1673ffffffffffffffffffffffffffffffffffffffff163373ffffffffffffffffffffffffffffffffffffffff16146105be576040517f08c379a00000000000000000000000000000000000000000000000000000000081526004018080602001828103825260148152602001807f4552524f523a3a4143434553535f44454e49454400000000000000000000000081525060200191505060405180910390fd5b806002600084815260200190815260200160002060006101000a81548173ffffffffffffffffffffffffffffffffffffffff021916908373ffffffffffffffffffffffffffffffffffffffff1602179055507f4186d7f83aa78f9135816218063fabeb2f0c298ecab8bb04d806afbb5c848e898282604051808381526020018273ffffffffffffffffffffffffffffffffffffffff1673ffffffffffffffffffffffffffffffffffffffff1681526020019250505060405180910390a15050565b6000809054906101000a900473ffffffffffffffffffffffffffffffffffffffff1681565b60026020528060005260406000206000915054906101000a900473ffffffffffffffffffffffffffffffffffffffff1681565b6000809054906101000a900473ffffffffffffffffffffffffffffffffffffffff1673ffffffffffffffffffffffffffffffffffffffff163373ffffffffffffffffffffffffffffffffffffffff1614610799576040517f08c379a00000000000000000000000000000000000000000000000000000000081526004018080602001828103825260148152602001807f4552524f523a3a4143434553535f44454e49454400000000000000000000000081525060200191505060405180910390fd5b806001600084815260200190815260200160002060006101000a81548173ffffffffffffffffffffffffffffffffffffffff021916908373ffffffffffffffffffffffffffffffffffffffff1602179055507fbf043a1d26c13bd94a78f2b9a1816bd745dd5aebdca4882f5a1b2103c8dfdc518282604051808381526020018273ffffffffffffffffffffffffffffffffffffffff1673ffffffffffffffffffffffffffffffffffffffff1681526020019250505060405180910390a15050565b6000303385858560405161086d90610acb565b808673ffffffffffffffffffffffffffffffffffffffff1673ffffffffffffffffffffffffffffffffffffffff1681526020018573ffffffffffffffffffffffffffffffffffffffff1673ffffffffffffffffffffffffffffffffffffffff1681526020018481526020018381526020018215151515815260200195505050505050604051809103906000f08015801561090b573d6000803e3d6000fd5b5090507fc4ee17f41d39569fdabd60884e9c9a975d1d3f5fd61c868df3acc1079c14d3a18133868686604051808673ffffffffffffffffffffffffffffffffffffffff1673ffffffffffffffffffffffffffffffffffffffff1681526020018573ffffffffffffffffffffffffffffffffffffffff1673ffffffffffffffffffffffffffffffffffffffff168152602001848152602001838152602001821515151581526020019550505050505060405180910390a150505050565b60006001600083815260200190815260200160002060009054906101000a900473ffffffffffffffffffffffffffffffffffffffff169050919050565b806000806101000a81548173ffffffffffffffffffffffffffffffffffffffff021916908373ffffffffffffffffffffffffffffffffffffffff1602179055507f440b0aee43e555e5bba5755e53862ffbc889c8ac177294486725dbe0847c5f756000809054906101000a900473ffffffffffffffffffffffffffffffffffffffff16604051808273ffffffffffffffffffffffffffffffffffffffff1673ffffffffffffffffffffffffffffffffffffffff16815260200191505060405180910390a150565b612d5f80610ad98339019056fe60806040523480156200001157600080fd5b5060405162002d5f38038062002d5f833981810160405260a08110156200003757600080fd5b810190808051906020019092919080519060200190929190805190602001909291908051906020019092919080519060200190929190505050600073ffffffffffffffffffffffffffffffffffffffff168573ffffffffffffffffffffffffffffffffffffffff16141562000114576040517f08c379a00000000000000000000000000000000000000000000000000000000081526004018080602001828103825260168152602001807f4552524f523a3a494e56414c49445f414444524553530000000000000000000081525060200191505060405180910390fd5b600073ffffffffffffffffffffffffffffffffffffffff168473ffffffffffffffffffffffffffffffffffffffff161415620001b8576040517f08c379a00000000000000000000000000000000000000000000000000000000081526004018080602001828103825260168152602001807f4552524f523a3a494e56414c49445f414444524553530000000000000000000081525060200191505060405180910390fd5b600083141562000230576040517f08c379a00000000000000000000000000000000000000000000000000000000081526004018080602001828103825260158152602001807f4552524f523a3a494e56414c49445f504552494f44000000000000000000000081525060200191505060405180910390fd5b600115158115151415620002c3576706f05b59d3b20000821115620002bd576040517f08c379a00000000000000000000000000000000000000000000000000000000081526004018080602001828103825260128152602001807f4552524f523a3a494e56414c49445f464545000000000000000000000000000081525060200191505060405180910390fd5b62000343565b67016345785d8a000082111562000342576040517f08c379a00000000000000000000000000000000000000000000000000000000081526004018080602001828103825260128152602001807f4552524f523a3a494e56414c49445f464545000000000000000000000000000081525060200191505060405180910390fd5b5b846000806101000a81548173ffffffffffffffffffffffffffffffffffffffff021916908373ffffffffffffffffffffffffffffffffffffffff16021790555083600160006101000a81548173ffffffffffffffffffffffffffffffffffffffff021916908373ffffffffffffffffffffffffffffffffffffffff160217905550826002819055508160038190555080600460006101000a81548160ff021916908315150217905550505050505061295e80620004016000396000f3fe608060405234801561001057600080fd5b50600436106100f55760003560e01c8063b1c9507f11610097578063ddca3f4311610066578063ddca3f4314610428578063e457e1e514610446578063ef78d4fd14610474578063fad898c214610492576100f5565b8063b1c9507f14610308578063d0fda7791461036a578063da47d8561461038c578063dc976dbf146103fa576100f5565b80633973bf6d116100d35780633973bf6d146101e05780637b1039991461022257806396ed026e1461026c578063a6d23e10146102d8576100f5565b80630b9f116d146100fa578063155bf4e21461012857806338af3eed14610196575b600080fd5b6101266004803603602081101561011057600080fd5b81019080803590602001909291905050506104c0565b005b6101546004803603602081101561013e57600080fd5b8101908080359060200190929190505050610697565b604051808273ffffffffffffffffffffffffffffffffffffffff1673ffffffffffffffffffffffffffffffffffffffff16815260200191505060405180910390f35b61019e6107f0565b604051808273ffffffffffffffffffffffffffffffffffffffff1673ffffffffffffffffffffffffffffffffffffffff16815260200191505060405180910390f35b61020c600480360360208110156101f657600080fd5b8101908080359060200190929190505050610816565b6040518082815260200191505060405180910390f35b61022a61082e565b604051808273ffffffffffffffffffffffffffffffffffffffff1673ffffffffffffffffffffffffffffffffffffffff16815260200191505060405180910390f35b6102c26004803603606081101561028257600080fd5b81019080803573ffffffffffffffffffffffffffffffffffffffff1690602001909291908035906020019092919080359060200190929190505050610853565b6040518082815260200191505060405180910390f35b6102e0610a3b565b6040518084815260200183815260200182151515158152602001935050505060405180910390f35b6103546004803603604081101561031e57600080fd5b81019080803573ffffffffffffffffffffffffffffffffffffffff16906020019092919080359060200190929190505050610a61565b6040518082815260200191505060405180910390f35b610372610cfa565b604051808215151515815260200191505060405180910390f35b6103b8600480360360208110156103a257600080fd5b8101908080359060200190929190505050610d0d565b604051808273ffffffffffffffffffffffffffffffffffffffff1673ffffffffffffffffffffffffffffffffffffffff16815260200191505060405180910390f35b6104266004803603602081101561041057600080fd5b8101908080359060200190929190505050610e66565b005b61043061103d565b6040518082815260200191505060405180910390f35b6104726004803603602081101561045c57600080fd5b8101908080359060200190929190505050611043565b005b61047c6119fe565b6040518082815260200191505060405180910390f35b6104be600480360360208110156104a857600080fd5b8101908080359060200190929190505050611a04565b005b6000809054906101000a900473ffffffffffffffffffffffffffffffffffffffff1673ffffffffffffffffffffffffffffffffffffffff1663f39ec1f7826040518263ffffffff1660e01b81526004018082815260200191505060206040518083038186803b15801561053257600080fd5b505afa158015610546573d6000803e3d6000fd5b505050506040513d602081101561055c57600080fd5b81019080805190602001909291905050506005600083815260200190815260200160002060006101000a81548173ffffffffffffffffffffffffffffffffffffffff021916908373ffffffffffffffffffffffffffffffffffffffff160217905550600073ffffffffffffffffffffffffffffffffffffffff166005600083815260200190815260200160002060009054906101000a900473ffffffffffffffffffffffffffffffffffffffff1673ffffffffffffffffffffffffffffffffffffffff161415610694576040517f08c379a00000000000000000000000000000000000000000000000000000000081526004018080602001828103825260168152602001807f4552524f523a3a494e56414c49445f414444524553530000000000000000000081525060200191505060405180910390fd5b50565b60008060009054906101000a900473ffffffffffffffffffffffffffffffffffffffff1673ffffffffffffffffffffffffffffffffffffffff16630c43feb3836040518263ffffffff1660e01b81526004018082815260200191505060206040518083038186803b15801561070b57600080fd5b505afa15801561071f573d6000803e3d6000fd5b505050506040513d602081101561073557600080fd5b81019080805190602001909291905050509050600073ffffffffffffffffffffffffffffffffffffffff168173ffffffffffffffffffffffffffffffffffffffff1614156107eb576040517f08c379a00000000000000000000000000000000000000000000000000000000081526004018080602001828103825260168152602001807f4552524f523a3a494e56414c49445f414444524553530000000000000000000081525060200191505060405180910390fd5b919050565b600160009054906101000a900473ffffffffffffffffffffffffffffffffffffffff1681565b60076020528060005260406000206000915090505481565b6000809054906101000a900473ffffffffffffffffffffffffffffffffffffffff1681565b60008061085e61262c565b73ffffffffffffffffffffffffffffffffffffffff166344e2a5a8856040518263ffffffff1660e01b815260040180828152602001915050602060405180830381600087803b1580156108b057600080fd5b505af11580156108c4573d6000803e3d6000fd5b505050506040513d60208110156108da57600080fd5b8101908080519060200190929190505050905060006108f761265c565b73ffffffffffffffffffffffffffffffffffffffff16636c25b346876040518263ffffffff1660e01b8152600401808273ffffffffffffffffffffffffffffffffffffffff1673ffffffffffffffffffffffffffffffffffffffff16815260200191505060206040518083038186803b15801561097357600080fd5b505afa158015610987573d6000803e3d6000fd5b505050506040513d602081101561099d57600080fd5b810190808051906020019092919050505090506109c6846b033b2e3c9fd0803ce800000061268c565b811015610a32576109fd826109f06109ea876b033b2e3c9fd0803ce800000061268c565b84612721565b816109f757fe5b046127a4565b9250610a15846b033b2e3c9fd0803ce800000061268c565b610a1f848461268c565b10610a2a5782610a2f565b600183015b92505b50509392505050565b600080600060025492506003549150600460009054906101000a900460ff169050909192565b600080610a6c61265c565b73ffffffffffffffffffffffffffffffffffffffff16636c25b346856040518263ffffffff1660e01b8152600401808273ffffffffffffffffffffffffffffffffffffffff1673ffffffffffffffffffffffffffffffffffffffff16815260200191505060206040518083038186803b158015610ae857600080fd5b505afa158015610afc573d6000803e3d6000fd5b505050506040513d6020811015610b1257600080fd5b810190808051906020019092919050505090506000610b2f61265c565b73ffffffffffffffffffffffffffffffffffffffff1663d9638d36856040518263ffffffff1660e01b81526004018082815260200191505060a06040518083038186803b158015610b7f57600080fd5b505afa158015610b93573d6000803e3d6000fd5b505050506040513d60a0811015610ba957600080fd5b8101908080519060200190929190805190602001909291908051906020019092919080519060200190929190805190602001909291905050505050509150506000610bf261265c565b73ffffffffffffffffffffffffffffffffffffffff16632424be5c86886040518363ffffffff1660e01b8152600401808381526020018273ffffffffffffffffffffffffffffffffffffffff1673ffffffffffffffffffffffffffffffffffffffff16815260200192505050604080518083038186803b158015610c7557600080fd5b505afa158015610c89573d6000803e3d6000fd5b505050506040513d6040811015610c9f57600080fd5b810190808051906020019092919080519060200190929190505050915050610ccf828481610cc957fe5b046127a4565b935080841115610cea57610ce2816127a4565b600003610cef565b836000035b935050505092915050565b600460009054906101000a900460ff1681565b60008060009054906101000a900473ffffffffffffffffffffffffffffffffffffffff1673ffffffffffffffffffffffffffffffffffffffff1663f39ec1f7836040518263ffffffff1660e01b81526004018082815260200191505060206040518083038186803b158015610d8157600080fd5b505afa158015610d95573d6000803e3d6000fd5b505050506040513d6020811015610dab57600080fd5b81019080805190602001909291905050509050600073ffffffffffffffffffffffffffffffffffffffff168173ffffffffffffffffffffffffffffffffffffffff161415610e61576040517f08c379a00000000000000000000000000000000000000000000000000000000081526004018080602001828103825260168152602001807f4552524f523a3a494e56414c49445f414444524553530000000000000000000081525060200191505060405180910390fd5b919050565b6000809054906101000a900473ffffffffffffffffffffffffffffffffffffffff1673ffffffffffffffffffffffffffffffffffffffff16630c43feb3826040518263ffffffff1660e01b81526004018082815260200191505060206040518083038186803b158015610ed857600080fd5b505afa158015610eec573d6000803e3d6000fd5b505050506040513d6020811015610f0257600080fd5b81019080805190602001909291905050506006600083815260200190815260200160002060006101000a81548173ffffffffffffffffffffffffffffffffffffffff021916908373ffffffffffffffffffffffffffffffffffffffff160217905550600073ffffffffffffffffffffffffffffffffffffffff166006600083815260200190815260200160002060009054906101000a900473ffffffffffffffffffffffffffffffffffffffff1673ffffffffffffffffffffffffffffffffffffffff16141561103a576040517f08c379a00000000000000000000000000000000000000000000000000000000081526004018080602001828103825260168152602001807f4552524f523a3a494e56414c49445f414444524553530000000000000000000081525060200191505060405180910390fd5b50565b60035481565b80600161104e612825565b73ffffffffffffffffffffffffffffffffffffffff16635aebb460611071612825565b73ffffffffffffffffffffffffffffffffffffffff16638161b120856040518263ffffffff1660e01b81526004018082815260200191505060206040518083038186803b1580156110c157600080fd5b505afa1580156110d5573d6000803e3d6000fd5b505050506040513d60208110156110eb57600080fd5b810190808051906020019092919050505084306040518463ffffffff1660e01b8152600401808473ffffffffffffffffffffffffffffffffffffffff1673ffffffffffffffffffffffffffffffffffffffff1681526020018381526020018273ffffffffffffffffffffffffffffffffffffffff1673ffffffffffffffffffffffffffffffffffffffff168152602001935050505060206040518083038186803b15801561119857600080fd5b505afa1580156111ac573d6000803e3d6000fd5b505050506040513d60208110156111c257600080fd5b810190808051906020019092919050505014611246576040517f08c379a00000000000000000000000000000000000000000000000000000000081526004018080602001828103825260168152602001807f4552524f523a3a4344505f4e4f545f414c4c4f5745440000000000000000000081525060200191505060405180910390fd5b600060076000848152602001908152602001600020541461132d5760076000838152602001908152602001600020544210156112ea576040517f08c379a000000000000000000000000000000000000000000000000000000000815260040180806020018281038252601a8152602001807f4552524f523a3a4344505f414c52454144595f4348415247454400000000000081525060200191505060405180910390fd5b600254600254600760008581526020019081526020016000205442038161130d57fe5b06420301600760008481526020019081526020016000208190555061134a565b600254420160076000848152602001908152602001600020819055505b6000611354612825565b73ffffffffffffffffffffffffffffffffffffffff16632726b073846040518263ffffffff1660e01b81526004018082815260200191505060206040518083038186803b1580156113a457600080fd5b505afa1580156113b8573d6000803e3d6000fd5b505050506040513d60208110156113ce57600080fd5b8101908080519060200190929190505050905060006113eb612825565b73ffffffffffffffffffffffffffffffffffffffff16632c2cb9fd856040518263ffffffff1660e01b81526004018082815260200191505060206040518083038186803b15801561143b57600080fd5b505afa15801561144f573d6000803e3d6000fd5b505050506040513d602081101561146557600080fd5b81019080805190602001909291905050509050600060011515600460009054906101000a900460ff16151514156114a057600354905061158f565b60006114aa61265c565b73ffffffffffffffffffffffffffffffffffffffff16632424be5c84866040518363ffffffff1660e01b8152600401808381526020018273ffffffffffffffffffffffffffffffffffffffff1673ffffffffffffffffffffffffffffffffffffffff16815260200192505050604080518083038186803b15801561152d57600080fd5b505afa158015611541573d6000803e3d6000fd5b505050506040513d604081101561155757600080fd5b810190808051906020019092919080519060200190929190505050915050670de0b6b3a764000060035482028161158a57fe5b049150505b60008111611605576040517f08c379a00000000000000000000000000000000000000000000000000000000081526004018080602001828103825260128152602001807f4552524f523a3a5a45524f5f434841524745000000000000000000000000000081525060200191505060405180910390fd5b61160d612825565b73ffffffffffffffffffffffffffffffffffffffff166345e6bdcd866000611636878787610853565b6040518463ffffffff1660e01b8152600401808481526020018381526020018281526020019350505050600060405180830381600087803b15801561167a57600080fd5b505af115801561168e573d6000803e3d6000fd5b5050505061169a612825565b73ffffffffffffffffffffffffffffffffffffffff1663f9f30db686306116c085612855565b6040518463ffffffff1660e01b8152600401808481526020018373ffffffffffffffffffffffffffffffffffffffff1673ffffffffffffffffffffffffffffffffffffffff1681526020018281526020019350505050600060405180830381600087803b15801561173057600080fd5b505af1158015611744573d6000803e3d6000fd5b50505050600061175261265c565b73ffffffffffffffffffffffffffffffffffffffff16634538c4eb30611776612874565b6040518363ffffffff1660e01b8152600401808373ffffffffffffffffffffffffffffffffffffffff1673ffffffffffffffffffffffffffffffffffffffff1681526020018273ffffffffffffffffffffffffffffffffffffffff1673ffffffffffffffffffffffffffffffffffffffff1681526020019250505060206040518083038186803b15801561180957600080fd5b505afa15801561181d573d6000803e3d6000fd5b505050506040513d602081101561183357600080fd5b810190808051906020019092919050505014156118f05761185261265c565b73ffffffffffffffffffffffffffffffffffffffff1663a3b22fc4611875612874565b6040518263ffffffff1660e01b8152600401808273ffffffffffffffffffffffffffffffffffffffff1673ffffffffffffffffffffffffffffffffffffffff168152602001915050600060405180830381600087803b1580156118d757600080fd5b505af11580156118eb573d6000803e3d6000fd5b505050505b6118f8612874565b73ffffffffffffffffffffffffffffffffffffffff1663ef693bed600160009054906101000a900473ffffffffffffffffffffffffffffffffffffffff16836040518363ffffffff1660e01b8152600401808373ffffffffffffffffffffffffffffffffffffffff1673ffffffffffffffffffffffffffffffffffffffff16815260200182815260200192505050600060405180830381600087803b1580156119a057600080fd5b505af11580156119b4573d6000803e3d6000fd5b505050507f35d67cc627962654c42a7fe4104cde27ac2a621621d0ec44545f7d8632de47cd8582604051808381526020018281526020019250505060405180910390a15050505050565b60025481565b806001611a0f612825565b73ffffffffffffffffffffffffffffffffffffffff16635aebb460611a32612825565b73ffffffffffffffffffffffffffffffffffffffff16638161b120856040518263ffffffff1660e01b81526004018082815260200191505060206040518083038186803b158015611a8257600080fd5b505afa158015611a96573d6000803e3d6000fd5b505050506040513d6020811015611aac57600080fd5b810190808051906020019092919050505084306040518463ffffffff1660e01b8152600401808473ffffffffffffffffffffffffffffffffffffffff1673ffffffffffffffffffffffffffffffffffffffff1681526020018381526020018273ffffffffffffffffffffffffffffffffffffffff1673ffffffffffffffffffffffffffffffffffffffff168152602001935050505060206040518083038186803b158015611b5957600080fd5b505afa158015611b6d573d6000803e3d6000fd5b505050506040513d6020811015611b8357600080fd5b810190808051906020019092919050505014611c07576040517f08c379a00000000000000000000000000000000000000000000000000000000081526004018080602001828103825260168152602001807f4552524f523a3a4344505f4e4f545f414c4c4f5745440000000000000000000081525060200191505060405180910390fd5b6000611c11612825565b73ffffffffffffffffffffffffffffffffffffffff16632726b073846040518263ffffffff1660e01b81526004018082815260200191505060206040518083038186803b158015611c6157600080fd5b505afa158015611c75573d6000803e3d6000fd5b505050506040513d6020811015611c8b57600080fd5b810190808051906020019092919050505090506000611ca8612825565b73ffffffffffffffffffffffffffffffffffffffff16632c2cb9fd856040518263ffffffff1660e01b81526004018082815260200191505060206040518083038186803b158015611cf857600080fd5b505afa158015611d0c573d6000803e3d6000fd5b505050506040513d6020811015611d2257600080fd5b81019080805190602001909291905050509050600080611d4061265c565b73ffffffffffffffffffffffffffffffffffffffff1663d9638d36846040518263ffffffff1660e01b81526004018082815260200191505060a06040518083038186803b158015611d9057600080fd5b505afa158015611da4573d6000803e3d6000fd5b505050506040513d60a0811015611dba57600080fd5b81019080805190602001909291908051906020019092919080519060200190929190805190602001909291908051906020019092919050505050509250925050600080611e0561265c565b73ffffffffffffffffffffffffffffffffffffffff16632424be5c86886040518363ffffffff1660e01b8152600401808381526020018273ffffffffffffffffffffffffffffffffffffffff1673ffffffffffffffffffffffffffffffffffffffff16815260200192505050604080518083038186803b158015611e8857600080fd5b505afa158015611e9c573d6000803e3d6000fd5b505050506040513d6040811015611eb257600080fd5b810190808051906020019092919080519060200190929190505050915091506000611edd838561268c565b90506000611eeb838761268c565b9050611ef98161040a61268c565b611f05836103e861268c565b118015611f275750611f198161044c61268c565b611f25836103e861268c565b105b611f99576040517f08c379a00000000000000000000000000000000000000000000000000000000081526004018080602001828103825260158152602001807f4552524f523a3a4e4f545f554e57494e4441424c45000000000000000000000081525060200191505060405180910390fd5b600085611fa68484612721565b81611fad57fe5b049050611fb8612825565b73ffffffffffffffffffffffffffffffffffffffff166345e6bdcd8c611fdd846127a4565b600003611fea8d8d610a61565b6040518463ffffffff1660e01b8152600401808481526020018381526020018281526020019350505050600060405180830381600087803b15801561202e57600080fd5b505af1158015612042573d6000803e3d6000fd5b5050505061204e612825565b73ffffffffffffffffffffffffffffffffffffffff16639bb8f8388c30846040518463ffffffff1660e01b8152600401808481526020018373ffffffffffffffffffffffffffffffffffffffff1673ffffffffffffffffffffffffffffffffffffffff1681526020018281526020019350505050600060405180830381600087803b1580156120dc57600080fd5b505af11580156120f0573d6000803e3d6000fd5b505050506120fd886128a4565b73ffffffffffffffffffffffffffffffffffffffff1663ef693bed30836040518363ffffffff1660e01b8152600401808373ffffffffffffffffffffffffffffffffffffffff1673ffffffffffffffffffffffffffffffffffffffff16815260200182815260200192505050600060405180830381600087803b15801561218357600080fd5b505af1158015612197573d6000803e3d6000fd5b505050506121a4886128b6565b73ffffffffffffffffffffffffffffffffffffffff1663095ea7b36121c76128c8565b836040518363ffffffff1660e01b8152600401808373ffffffffffffffffffffffffffffffffffffffff1673ffffffffffffffffffffffffffffffffffffffff16815260200182815260200192505050602060405180830381600087803b15801561223157600080fd5b505af1158015612245573d6000803e3d6000fd5b505050506040513d602081101561225b57600080fd5b81019080805190602001909291905050505060006122776128c8565b73ffffffffffffffffffffffffffffffffffffffff16630621b4f661229b8b6128b6565b846122a46128f8565b60006040518563ffffffff1660e01b8152600401808573ffffffffffffffffffffffffffffffffffffffff1673ffffffffffffffffffffffffffffffffffffffff1681526020018481526020018373ffffffffffffffffffffffffffffffffffffffff1673ffffffffffffffffffffffffffffffffffffffff168152602001828152602001945050505050602060405180830381600087803b15801561234957600080fd5b505af115801561235d573d6000803e3d6000fd5b505050506040513d602081101561237357600080fd5b8101908080519060200190929190505050905061238e612874565b73ffffffffffffffffffffffffffffffffffffffff1663f4b9fa756040518163ffffffff1660e01b8152600401602060405180830381600087803b1580156123d557600080fd5b505af11580156123e9573d6000803e3d6000fd5b505050506040513d60208110156123ff57600080fd5b810190808051906020019092919050505073ffffffffffffffffffffffffffffffffffffffff1663095ea7b3612433612874565b836040518363ffffffff1660e01b8152600401808373ffffffffffffffffffffffffffffffffffffffff1673ffffffffffffffffffffffffffffffffffffffff16815260200182815260200192505050600060405180830381600087803b15801561249d57600080fd5b505af11580156124b1573d6000803e3d6000fd5b505050506124bd612874565b73ffffffffffffffffffffffffffffffffffffffff16633b4da69f8b836040518363ffffffff1660e01b8152600401808373ffffffffffffffffffffffffffffffffffffffff1673ffffffffffffffffffffffffffffffffffffffff16815260200182815260200192505050600060405180830381600087803b15801561254357600080fd5b505af1158015612557573d6000803e3d6000fd5b50505050612563612825565b73ffffffffffffffffffffffffffffffffffffffff166345e6bdcd8d600061258b8e8e610a61565b6040518463ffffffff1660e01b8152600401808481526020018381526020018281526020019350505050600060405180830381600087803b1580156125cf57600080fd5b505af11580156125e3573d6000803e3d6000fd5b505050507f88d7d27e12f8c8a2b3c71ea048f62552cf92014e18c51fba2d52bfc7d06ff8cc8c6040518082815260200191505060405180910390a1505050505050505050505050565b60006126577f4a55470000000000000000000000000000000000000000000000000000000000610d0d565b905090565b60006126877f5641540000000000000000000000000000000000000000000000000000000000610d0d565b905090565b6000808214806126a957508282838502925082816126a657fe5b04145b61271b576040517f08c379a000000000000000000000000000000000000000000000000000000000815260040180806020018281038252600c8152602001807f6d756c2d6f766572666c6f77000000000000000000000000000000000000000081525060200191505060405180910390fd5b92915050565b600082828403915081111561279e576040517f08c379a000000000000000000000000000000000000000000000000000000000815260040180806020018281038252600c8152602001807f7375622d6f766572666c6f77000000000000000000000000000000000000000081525060200191505060405180910390fd5b92915050565b60008190506000811215612820576040517f08c379a000000000000000000000000000000000000000000000000000000000815260040180806020018281038252600c8152602001807f696e742d6f766572666c6f77000000000000000000000000000000000000000081525060200191505060405180910390fd5b919050565b60006128507f4344505f4d414e41474552000000000000000000000000000000000000000000610d0d565b905090565b600061286d826b033b2e3c9fd0803ce800000061268c565b9050919050565b600061289f7f4441495f4a4f494e000000000000000000000000000000000000000000000000610d0d565b905090565b60006128af82610d0d565b9050919050565b60006128c182610697565b9050919050565b60006128f37f4f415349535f5452414445000000000000000000000000000000000000000000610d0d565b905090565b60006129237f4441490000000000000000000000000000000000000000000000000000000000610d0d565b90509056fea2646970667358221220f0976ec14d34aebbf065143b05407ea8433dba40d9a7df946d74791ca91718cd64736f6c63430006020033a2646970667358221220989d5fa0181773cfd5f9a782adfa68d8202945940fb48a069dcfc392b91ab37a64736f6c63430006020033",
  "source": "pragma solidity 0.6.2;\n\nimport \"./Unwind.sol\";\nimport \"./WithOperator.sol\";\n\ncontract UnwindFactory is WithOperator {\n    event LogNewDistributor(address unwind, address beneficiary, uint256 period, uint256 fee, bool flat);\n    event LogNewService(bytes32 name, address addr);\n    event LogNewToken(bytes32 ilk, address addr);\n\n    mapping(bytes32 => address) public services;\n    mapping(bytes32 => address) public tokens;\n\n    constructor() public WithOperator() {}\n\n    function register(bytes32 name, address addr) external onlyOperator {\n        services[name] = addr;\n        emit LogNewService(name, addr);\n    }\n\n    function registerToken(bytes32 ilk, address addr) external onlyOperator {\n        tokens[ilk] = addr;\n        emit LogNewToken(ilk, addr);\n    }\n\n    function lookup(bytes32 name) external view returns (address addr) {\n        addr = services[name];\n    }\n\n    function lookupToken(bytes32 ilk) external view returns (address addr) {\n        addr = tokens[ilk];\n    }\n\n    function join(\n        uint256 period,\n        uint256 fee,\n        bool flat\n    ) public {\n        Unwind u = new Unwind(address(this), msg.sender, period, fee, flat);\n        emit LogNewDistributor(address(u), msg.sender, period, fee, flat);\n    }\n}\n",
  "sourcePath": "/Users/ka/Projects/Altoros/graceful-unwind/smart-contracts/contracts/UnwindFactory.sol",
  "compiler": {
    "name": "solc",
    "version": "0.6.2+commit.bacdbe57.Linux.g++"
  },
  "schemaVersion": "3.0.19",
  "updatedAt": "2020-02-07T17:19:25.054Z",
  "networkType": "ethereum",
  "devdoc": {
    "methods": {}
  },
  "userdoc": {
    "methods": {}
  }
}